S00F000030372D756172742E73726563C5
S11300000C9434000C9451000C9451000C94510045
S11300100C9451000C9451000C9451000C94510018
S11300200C9451000C9451000C9451000C94510008
S11300300C9451000C942E010C9451000C9451001A
S11300400C9451000C9451000C943C020C946A02E0
S11300500C9451000C9443010C9451000C945100E5
S11300600C9451000C94510011241FBECFEFD8E022
S1130070DEBFCDBF11E0A0E0B1E0E0E1F6E002C0F8
S113008005900D92A234B107D9F721E0A2E4B1E0C2
S113009001C01D92A738B207E1F70E94EA000C9450
S11300A006030C940000299A000029980895CF9320
S11300B0C82F662311F0289A01C02898549A559A9B
S11300C0569A579A5F985E985D985C98CC230CF486
S11300D05F9AC6FD5E9AC5FD5D9AC4FD5C9A0E9456
S11300E053005F985E985D985C98C3FD5F9AC2FD6B
S11300F05E9AC1FD5D9AC0FD5C9A0E9453005C9AB1
S11301005D9A5E9A5F9A8AEF8A95F1F7CF91089586
S113011060E00E9457000895611104C080580E9455
S11301208800089580540E948800089581E00E9408
S11301308800089561E00E9457000895CF93DF93EB
S1130140EC012196FC018081882329F00E949A0009
S113015089918111FBCFDF91CF910895CF93C82F5F
S1130160209A559A219A549A559A569A579A8FE9F1
S11301709FE00197F1F700C000005D9A5C9A0E942D
S1130180530081EE94E00197F1F700C000000E9453
S1130190530095E19A95F1F700000E94530085E120
S11301A08A95F1F700005C980E94530095E19A95B6
S11301B0F1F7000088E20E94880088E00E9488002D
S11301C00E94960086E00E9488008C2F0E9488007E
S11301D0CF9108958CE00E94AE0060E081E00E941F
S11301E08C0080E091E00E949E0060E08DE00E941F
S11301F08C0087E091E00E949E0061E083E00E9411
S11302008C008AE091E00E949E00ECE7F0E080819F
S11302108F7780838081806480838081807F8083E6
S1130220EAE7F0E080818068808380818860808351
S1130230808187608083E1E8F0E080818B7F808328
S1130240808183608083EFE6F0E080818160808339
S113025087E690E00E9494027894FFCF1F920F9259
S11302600FB60F9211248F93EF93FF93EAE7F0E018
S1130270808180648083FF91EF918F910F900FBEF6
S11302800F901F9018951F920F920FB60F92112482
S11302900F931F932F933F934F935F936F937F938A
S11302A08F939F93AF93BF93EF93FF93CF93DF937A
S11302B0CDB7DEB72597DEBFCDBF00917800109192
S11302C079004AE0BE016F5F7F4FC8010E94D102EE
S11302D060E088E00E948C008EE191E00E949E0024
S11302E060E088E00E948C00CE0101960E949E008E
S11302F00C3B82E0180760F48FE091E00E94C20298
S1130300CE0101960E94C20289E191E00E94C202DC
S113031061E088E00E948C008BE191E00E949E00E5
S11303200C3F83E0180768F061E088E00E948C00CD
S113033083E291E00E949E000115110509F046C078
S113034050C00A30110548F461E088E00E948C0036
S113035088E291E00E949E00EFCFC8018B5591097D
S1130360439748F461E088E00E948C008EE291E0BB
S11303700E949E00E1CFC801875E9109439748F42B
S113038061E088E00E948C0081E391E00E949E007D
S1130390D3CFC80187589140439748F461E088E07F
S11303A00E948C0086E391E00E949E00C5CFC801A4
S11303B081589240439708F0BFCF61E088E00E94E3
S11303C08C008BE391E00E949E00B6CF80E090E029
S11303D000FD01961695079501151105C9F780FDD5
S11303E019C04AE0BE016F5F7F4F81E090E00E9438
S11303F0D10260E08FE00E948C008EE191E00E94C7
S11304009E0060E08FE00E948C00CE0101960E9465
S11304109E0018C04AE0BE016F5F7F4F80E090E00D
S11304200E94D10260E08FE00E948C008EE191E096
S11304300E949E0060E08FE00E948C00CE01019635
S11304400E949E000F900F900F900F900F90DF91DD
S1130450CF91FF91EF91BF91AF919F918F917F9138
S11304606F915F914F913F912F911F910F910F9039
S11304700FBE0F901F9018951F920F920FB60F92F8
S113048011242F938F939F93EF93FF938091C00038
S11304902091C6008C71E0914401EF5FEF7190915F
S11304A04301E91739F0E0934401F0E0E95BFE4FC2
S11304B0208301C082E090914201892B8093420104
S11304C0FF91EF919F918F912F910F900FBE0F90FD
S11304D01F9018951F920F920FB60F9211248F93AD
S11304E09F93EF93FF939091460180914501981754
S11304F069F0E0914501EF5FEF71E0934501F0E0B1
S1130500E959FE4F80818093C60005C0E1ECF0E01C
S113051080818F7D8083FF91EF919F918F910F90C8
S11305200FBE0F901F90189510924601109245012E
S1130530109244011092430199231CF422E0209369
S1130540C00090789093C5008093C40088E980939C
S1130550C10086E08093C2000895209146012F5F78
S11305602F71909145012917E1F3E22FF0E0E95949
S1130570FE4F808320934601E1ECF0E080818062AD
S113058080830895CF93DF93EC018881882331F031
S113059021960E94AD0289918111FBCFDF91CF9109
S11305A00895BB274A3031F4992322F4BDE2909593
S11305B081959F4F0C94DD02BB27FB015527AA2789
S11305C0880F991FAA1FA41710F0A41B83955051DC
S11305D0B9F7A05DAA3308F0A95DA193009779F754
S11305E0B111B1931192CB010C94F602DC01FC0120
S11305F0672F71917723E1F7329704C07C916D9353
S113060070836291AE17BF07C8F30895F894FFCFC3
S113061076616C75653A00503A006B65793A004131
S113062044432076616C7565000A00202020202058
S11306302020004E6F6E6500526967687400557023
S113064000446F776E004C6566740053656C656397
S1050650740030
S9030000FC
