S01400004B6E696768747269646572322E7372656363
S11300000C9434000C943E000C943E000C943E007E
S11300100C943E000C943E000C943E000C943E0064
S11300200C943E000C943E000C943E000C943E0054
S11300300C943E000C949C000C943E000C943E00E6
S11300400C943E000C943E000C943E000C943E0034
S11300500C943E000C943E000C943E000C943E0024
S11300600C943E000C943E0011241FBECFEFD8E048
S1130070DEBFCDBF0E9465000C94D7000C94000035
S1130080FC01408121E030E002C0220F331F6A9559
S1130090E2F7242B20830895FC01908121E030E0D5
S11300A002C0220F331F6A95E2F72095292320838B
S11300B00895FC01408121E030E002C0220F331F8B
S11300C06A95E2F724272083089564E084E290E0AF
S11300D00E94400064E085E290E00E944C0065E0EC
S11300E084E290E00E94400065E085E290E00E9496
S11300F04C0063E084E290E00E94400063E085E20B
S113010090E00E944C0062E084E290E00E94400093
S113011062E085E290E00E944C00E1E8F0E080813A
S11301208C7F8083808184608083EFE6F0E080812F
S1130130816080837894FFCF1F920F920FB60F9245
S113014011242F933F934F935F936F937F938F93D8
S11301509F93AF93BF93EF93FF9365E085E290E0A5
S11301600E94590065E085E290E00E94590064E035
S113017085E290E00E94590063E085E290E00E94ED
S1130180590062E085E290E00E945900FF91EF91EE
S1130190BF91AF919F918F917F916F915F914F919B
S11301A03F912F910F900FBE0F901F901895F894C8
S10501B0FFCF7B
S9030000FC
