S00E000030362D6C63642E7372656350
S11300000C9434000C9451000C9451000C94510045
S11300100C9451000C9451000C9451000C94510018
S11300200C9451000C9450010C9451000C94510008
S11300300C9451000C9451000C9451000C945100F8
S11300400C9455020C9451000C9451000C945100E2
S11300500C9451000C9451000C9451000C945100D8
S11300600C9451000C94510011241FBECFEFD8E022
S1130070DEBFCDBF11E0A0E0B1E0E4EDF5E002C0E9
S113008005900D92AA33B107D9F721E0AAE3B1E0B4
S113009001C01D92A634B207E1F70E94EE000C9451
S11300A0E8020C940000299A000029980895CF933F
S11300B0C82F662311F0289A01C02898549A559A9B
S11300C0569A579A5F985E985D985C98CC230CF486
S11300D05F9AC6FD5E9AC5FD5D9AC4FD5C9A0E9456
S11300E053005F985E985D985C98C3FD5F9AC2FD6B
S11300F05E9AC1FD5D9AC0FD5C9A0E9453005C9AB1
S11301005D9A5E9A5F9A8AEF8A95F1F7CF91089586
S113011060E00E945700089561E00E94570008952E
S1130120611104C080580E948800089580540E9480
S11301308800089581E00E948800089561E00E948B
S113014057000895CF93DF93EC012196FC01808141
S1130150882329F00E949E0089918111FBCFDF91B1
S1130160CF910895CF93C82F209A559A219A549AE3
S1130170559A569A579A8FE99FE00197F1F700C074
S113018000005D9A5C9A0E94530081EE94E001970E
S1130190F1F700C000000E94530095E19A95F1F731
S11301A000000E94530085E18A95F1F700005C98F5
S11301B00E94530095E19A95F1F7000088E20E94AD
S11301C0880088E00E9488000E949A0086E00E94CD
S11301D088008C2F0E948800CF9108958CE00E94A3
S11301E0B20080E40E9488000F2EF1E0EF2EF1E0CF
S11301F0FF2EF02D09E211E0E70189910E948C00A5
S1130200C017D107D1F780E80E94880080E00E94DF
S11302109E0080E40E948800C9E0D1E0F70181914A
S11302207F010E948C00EC16FD06C1F780E80E9455
S1130230880080E00E949E0060E081E00E949000BF
S113024081E391E00E94A20060E08BE00E949000B4
S113025081E60E949E0061E081E00E94900082E6B7
S11302600E949E0061E08BE00E94900083E60E9461
S11302709E0085B58D7F85BD85B5856085BDEEE61F
S1130280F0E0808181608083E1EBF0E08081876031
S11302908083E0E7F0E08081816080837894FFCF01
S11302A01F920F920FB60F9211242F933F934F93E7
S11302B05F936F937F938F939F93AF93BF93EF93CA
S11302C0FF93CF93DF9300D0CDB7DEB780E290E207
S11302D09A838983809145018F5F863018F48093D7
S11302E04501CEC010924501809144018F5F8A3050
S11302F018F480934401B3C01092440180914301E7
S11303008F5F809343018C3308F463C080910001B4
S11303108F3068F460E00E94900080E00E949E00AC
S1130320809100018F5F809300018F3098F38BE000
S113033080930001109243014AE0BE016F5F7F4F3A
S113034080E090E00E94B30260E084E00E949000AC
S1130350CE0101960E94A200809142018F5F8C33EE
S113036018F48093420112C0109242014AE0BE0187
S11303706F5F7F4F80E090E00E94B30260E081E015
S11303800E949000CE0101960E94A2008091420139
S11303908A3080F04AE0BE016F5F7F4F90E00E9498
S11303A0B30260E081E00E949000CE0101960E94B9
S11303B0A2000FC04AE0BE016F5F7F4F90E00E9431
S11303C0B30260E082E00E949000CE0101960E9498
S11303D0A200809143018A3080F04AE0BE016F5F41
S11303E07F4F90E00E94B30260E084E00E9490009E
S11303F0CE0101960E94A2000FC04AE0BE016F5FC9
S11304007F4F90E00E94B30260E085E00E9490007C
S1130410CE0101960E94A20080914301889FC001F1
S11304201124092E000CAA0BBB0B80933E01909360
S11304303F01A0934001B093410160E08BE00E9432
S113044090004AE0BE016F5F7F4F80913E01909122
S11304503F010E94B302CE0101960E94A200809146
S113046044014AE0BE016F5F7F4F90E00E94B302F7
S113047060E087E00E949000CE0101960E94A200F5
S11304800F900F90DF91CF91FF91EF91BF91AF91BA
S11304909F918F917F916F915F914F913F912F9198
S11304A00F900FBE0F901F9018951F920F920FB6CA
S11304B00F9211242F933F934F935F936F937F93E6
S11304C08F939F93AF93BF93EF93FF9380913D01DD
S11304D08F5F80933D0190913C019F5F90933C011D
S11304E0863028F110923D0180913B018F5F80930B
S11304F03B0110923C018A30D0F080913A018A305D
S113050080F461E08F5F0E94900010923C0180E0D3
S11305100E949E0080913A018F5F80933A018A3055
S113052080F310923A0110923B0110923C018091A9
S11305303B0161E08F5F0E94900080913C018150FB
S11305400E949E00FF91EF91BF91AF919F918F9177
S11305507F916F915F914F913F912F910F900FBEBB
S11305600F901F901895BB274A3031F4992322F439
S1130570BDE2909581959F4F0C94BF02BB27FB0170
S11305805527AA27880F991FAA1FA41710F0A41B88
S113059083955051B9F7A05DAA3308F0A95DA193E2
S11305A0009779F7B111B1931192CB010C94D80251
S11305B0DC01FC01672F71917723E1F7329704C0C6
S11305C07C916D9370836291AE17BF07C8F3089551
S10705D0F894FFCFC9
S11305D40B00000000000000001010101010101098
S11305E41018181818181818181C1C1C1C1C1C1C6F
S11305F41C1E1E1E1E1E1E1E1E1F1F1F1F1F1F1F0E
S10D06041F30303A30302E30000071
S9030000FC
