S018000030352D7365676D656E742D736E616B652E7372656348
S11300000C9434000C9451000C9451000C94510045
S11300100C9451000C9451000C9451000C94510018
S11300200C9451000C9451000C9451000C94510008
S11300300C9451000C94CA000C9451000C9451007F
S11300400C9494000C9451000C9451000C945100A5
S11300500C9451000C9451000C9451000C945100D8
S11300600C9451000C94510011241FBECFEFD8E022
S1130070DEBFCDBF11E0A0E0B1E0E0E3F3E002C0F9
S113008005900D92AC30B107D9F721E0ACE0B1E0B6
S113009001C01D92AF30B207E1F70E9478000C94C2
S11300A096010C940000FC01408121E030E002C084
S11300B0220F331F6A95E2F7242B20830895FC0155
S11300C0908121E030E002C0220F331F6A95E2F7ED
S11300D02095292320830895FC01408121E030E00C
S11300E002C0220F331F6A95E2F7242B2083089560
S11300F00E94130185B5897F85BD85B5816085BD65
S1130100EEE6F0E0808181608083E1E8F0E08081C8
S11301108B7F8083808183608083EFE6F0E0808141
S1130120816080837894FFCF1F920F920FB60F9255
S113013011242F933F934F935F936F937F938F93E8
S11301409F93AF93BF93EF93FF9380910C01811121
S113015009C060E080910E010E94230181E0809338
S11301600C0107C061E0809100010E9423011092FC
S11301700C01FF91EF91BF91AF919F918F917F916E
S11301806F915F914F913F912F910F900FBE0F9000
S11301901F9018951F920F920FB60F9211248F93F0
S11301A09F9380910E01833060F48F5F80930E01E2
S11301B086E08093000180910D018F5F80930D0193
S11301C02BC080910001863061F483E080930001AC
S11301D086E080930E0180910D018F5F80930D0165
S11301E01BC08F5F8093000196E090930E01909165
S11301F00D019F5F90930D01863071F4983039F4AE
S113020010920E018093000110920D0105C010920E
S11302100E0186E0809300019F918F910F900FBE95
S11302200F901F90189564E08AE290E00E945300BA
S113023067E08AE290E00E94530060E084E290E08C
S11302400E94530008951F93CF93DF93E82FF0E0AB
S1130250EB5FFE4F1081E62FF0E0EF5FFE4FD081A1
S113026064E08BE290E00E945F0067E08BE290E044
S11302700E945F0060E085E290E00E945F0085E0FC
S11302808A95F1F70000C8E010FD06C060E085E241
S113029090E00E945F0005C060E085E290E00E946B
S11302A06C0085E08A95F1F7000067E08BE290E04E
S11302B00E946C0085E08A95F1F7000067E08BE20C
S11302C090E00E945F001695C150F1F6C8E0D0FDA1
S11302D006C060E085E290E00E945F0005C060E037
S11302E085E290E00E946C0085E08A95F1F70000B9
S11302F067E08BE290E00E946C0085E08A95F1F75C
S1130300000067E08BE290E00E945F00D695C15048
S1130310F1F664E08BE290E00E946C0085E08A953F
S1130320F1F70000DF91CF911F910895F894FFCF6A
S10F033006102040807FBFDFEFF7FBFFCA
S9030000FC
