:100000000C9434000C94F5010C94A0020C94510053
:100010000C9451000C9451000C9451000C9451001C
:100020000C9451000C944D030C9451000C9451000D
:100030000C9451000C9492010C9451000C945100BA
:100040000C9451000C9451000C9486040C94B4044C
:100050000C9451000C9451000C9451000C945100DC
:100060000C9451000C94510011241FBECFEFD8E026
:10007000DEBFCDBF11E0A0E0B1E0E2E0FDE002C0F4
:1000800005900D92AE32B107D9F721E0AEE2B1E0B2
:1000900001C01D92A937B207E1F70E9436010C9406
:1000A0007F060C940000FC01408121E030E002C09A
:1000B000220F331F6A95E2F7242B20830895FC0159
:1000C000808121E030E002C0220F331F6A95E2F701
:1000D0002095822380838081818128232183089534
:1000E000FC01908121E030E002C0220F331F6A95AD
:1000F000E2F72095292320830895FC01408121E027
:1001000030E002C0220F331F6A95E2F7242B2083D0
:100110000895FC01408121E030E002C0220F331F2E
:100120006A95E2F7242720830895FC01808190E0FE
:1001300002C0959587956A95E2F781700895299A8E
:10014000000029980895CF93C82F662311F0289AAC
:1001500001C02898549A559A569A579A5F985E9873
:100160005D985C98CC230CF45F9AC6FD5E9AC5FD41
:100170005D9AC4FD5C9A0E949F005F985E985D98AE
:100180005C98C3FD5F9AC2FD5E9AC1FD5D9AC0FD99
:100190005C9A0E949F005C9A5D9A5E9A5F9A8AEFD1
:1001A0008A95F1F7CF91089560E00E94A300089529
:1001B000611104C080580E94D400089580540E94A8
:1001C000D400089581E00E94D400089561E00E9467
:1001D000A3000895CF93DF93EC012196FC01808169
:1001E000882329F00E94E60089918111FBCFDF91DD
:1001F000CF910895CF93C82F209A559A219A549A57
:10020000559A569A579A8FE99FE00197F1F700C0E7
:1002100000005D9A5C9A0E949F0081EE94E0019735
:10022000F1F700C000000E949F0095E19A95F1F758
:1002300000000E949F0085E18A95F1F700005C981C
:100240000E949F0095E19A95F1F7000088E20E94D4
:10025000D40088E00E94D4000E94E20086E00E9460
:10026000D4008C2F0E94D400CF9108958CE00E947E
:10027000FA0064E084E290E00E94530062E08AE2C7
:1002800090E00E945F0065E084E290E00E945300ED
:1002900063E08AE290E00E945F0062E084E290E026
:1002A0000E94530062E085E290E00E9470000E948C
:1002B0000C040E94F203E89AE9E6F0E08081836092
:1002C0008083E99A80818C60808360E080E00E9476
:1002D000D8008CE091E00E94EA0061E080E00E949A
:1002E000D8008FE091E00E94EA0087E690E00E944B
:1002F000DE04E1E8F0E080818C7F8083808184608F
:100300008083EFE6F0E0808181608083E1EBF0E0C4
:10031000808187608083E0E7F0E080818160808376
:100320007894FFCF1F920F920FB60F9211242F9344
:100330003F934F935F936F937F938F939F93AF936D
:10034000BF93EF93FF938091320190913301009717
:10035000F1F464E085E290E00E94700085E08A9507
:10036000F1F7000064E085E290E00E947D0085E303
:100370008A95F1F7000064E085E290E00E94700049
:1003800081E090E090933301809332011DC001978A
:10039000D9F465E085E290E00E94700085E08A95DE
:1003A000F1F7000065E085E290E00E947D0085E3C2
:1003B0008A95F1F7000065E085E290E00E94700008
:1003C0001092330110923201FF91EF91BF91AF91E2
:1003D0009F918F917F916F915F914F913F912F915D
:1003E0000F900FBE0F901F9018951F920F920FB68F
:1003F0000F9211242F933F934F935F936F937F93AB
:100400008F939F93AF93BF93EF93FF93CF93DF931C
:10041000CDB7DEB72897DEBFCDBF87E0E4E0F1E0DF
:10042000DE01119601900D928A95E1F7188609C0B8
:100430008091300190913101019690933101809328
:10044000300162E089E290E00E9495008111F0CFD6
:10045000609130017091310180E090E00E94BC0514
:1004600026E636E64CEA51E40E941B050E948D0503
:10047000DC01CB0190933101809330019C0123502A
:1004800031092D383140A8F082E191E00E940C053D
:1004900060E082E00E94D80088E191E00E94EA00DA
:1004A00060E082E00E94D8008DE191E00E94EA00C5
:1004B00022C04AE0BE016F5F7F4F0E944A0660E0A3
:1004C00082E00E94D80088E191E00E94EA0060E0AA
:1004D00082E00E94D800CE0101960E94EA0081E2EB
:1004E00091E00E940C05CE0101960E940C0586E168
:1004F00091E00E940C058091300190913101909320
:10050000030180930201109231011092300128966C
:100510000FB6F894DEBF0FBECDBFDF91CF91FF9134
:10052000EF91BF91AF919F918F917F916F915F916B
:100530004F913F912F910F900FBE0F901F901895E4
:100540001F920F920FB60F9211242F933F934F9348
:100550005F936F937F938F939F93AF93BF93EF932B
:10056000FF93CF93DF93CDB7DEB72897DEBFCDBF24
:1005700087E0E4E0F1E0DE01119601900D928A95AA
:10058000E1F7188609C080912E0190912F01019604
:1005900090932F0180932E0163E089E290E00E9406
:1005A00095008111F0CF60912E0170912F0180E0B4
:1005B00090E00E94BC0526E636E64AE951E40E9436
:1005C0001B050E948D05DC01CB0190932F018093C8
:1005D0002E019C01235031092D383140A8F082E1D1
:1005E00091E00E940C0561E082E00E94D80088E161
:1005F00091E00E94EA0061E082E00E94D8008DE173
:1006000091E00E94EA0022C04AE0BE016F5F7F4F86
:100610000E944A0661E082E00E94D80088E191E0F1
:100620000E94EA0061E082E00E94D800CE010196BB
:100630000E94EA0087E291E00E940C05CE0101963B
:100640000E940C0586E191E00E940C0580912E012C
:1006500090912F01909301018093000110922F013E
:1006600010922E010E94F20328960FB6F894DEBF76
:100670000FBECDBFDF91CF91FF91EF91BF91AF91B1
:100680009F918F917F916F915F914F913F912F91AA
:100690000F900FBE0F901F9018951F920F920FB6DC
:1006A0000F9211242F933F934F935F936F937F93F8
:1006B0008F939F93AF93BF93EF93FF93809102012A
:1006C000909103012091000130910101821793075D
:1006D00024F0281739077CF5C9019C01AC01495267
:1006E00051094A30510578F4E1EBF0E080818760F0
:1006F000808362E085E290E00E94890081E090E0E2
:100700000E9426045EC0AC014F5151094A30510588
:10071000B0F4E1EBF0E080818E7F808380818660A1
:10072000808362E085E290E00E94890082E090E0B0
:100730000E94260446C024E630E084E690E0A90149
:10074000455151094A30510590F4E1EBF0E08081C8
:100750008D7F808380818560808362E085E290E088
:100760000E94890083E090E00E9426042AC02B505A
:1007700031092A30310590F4E1EBF0E080818C7F83
:10078000808380818460808362E085E290E00E94C3
:10079000890084E090E00E94260413C00B978CF43B
:1007A000E1EBF0E080818B7F8083808183608083B8
:1007B00062E085E290E00E94890085E090E00E947E
:1007C0002604FF91EF91BF91AF919F918F917F91FF
:1007D0006F915F914F913F912F910F900FBE0F90AE
:1007E0001F90189561E088E290E00E94700062E03E
:1007F00088E290E00E94700063E088E290E00E944E
:10080000700064E088E290E00E94700065E088E299
:1008100090E00E947000089561E087E290E00E94FD
:10082000530062E087E290E00E94530063E087E2B9
:1008300090E00E94530064E087E290E00E94530041
:1008400065E087E290E00E945300089583309105AF
:10085000F1F034F48130910549F0029769F0089580
:100860008430910521F10597B9F1089561E088E29E
:1008700090E00E948900089561E088E290E00E9483
:10088000890062E088E290E00E948900089561E0BA
:1008900088E290E00E94890062E088E290E00E9495
:1008A000890063E088E290E00E948900089561E099
:1008B00088E290E00E94890062E088E290E00E9475
:1008C000890063E088E290E00E94890064E088E2A9
:1008D00090E00E948900089561E088E290E00E9423
:1008E000890062E088E290E00E94890063E088E28B
:1008F00090E00E94890064E088E290E00E94890014
:1009000065E088E290E00E94890008951F920F92AE
:100910000FB60F9211242F938F939F93EF93FF9312
:100920008091C0002091C6008C71E0913601EF5F8C
:10093000EF7190913501E91739F0E0933601F0E05D
:10094000E75CFE4F208301C082E090913401892B47
:1009500080933401FF91EF919F918F912F910F9090
:100960000FBE0F901F9018951F920F920FB60F9207
:1009700011248F939F93EF93FF939091380180916F
:100980003701981769F0E0913701EF5FEF71E0935D
:100990003701F0E0E75AFE4F80818093C60005C022
:1009A000E1ECF0E080818F7D8083FF91EF919F915A
:1009B0008F910F900FBE0F901F90189510923801D5
:1009C00010923701109236011092350199231CF4D0
:1009D00022E02093C00090789093C5008093C400DB
:1009E00088E98093C10086E08093C2000895209139
:1009F00038012F5F2F71909137012917E1F3E22F12
:100A0000F0E0E75AFE4F808320933801E1ECF0E0FC
:100A10008081806280830895CF93DF93EC01888189
:100A2000882331F021960E94F70489918111FBCF30
:100A3000DF91CF9108950E942F050C9410060E941B
:100A4000090658F00E94020640F029F45F3F29F0A1
:100A50000C94F90551110C9444060C94FF050E9466
:100A6000210668F39923B1F3552391F3951B550B98
:100A7000BB27AA2762177307840738F09F5F5F4F71
:100A8000220F331F441FAA1FA9F335D00E2E3AF0B0
:100A9000E0E832D091505040E695001CCAF72BD0C8
:100AA000FE2F29D0660F771F881FBB1F2617370719
:100AB0004807AB07B0E809F0BB0B802DBF01FF274B
:100AC00093585F4F3AF09E3F510578F00C94F9052A
:100AD0000C9444065F3FE4F3983ED4F386957795F3
:100AE0006795B795F7959F5FC9F7880F911D969504
:100AF000879597F90895E1E0660F771F881FBB1F60
:100B0000621773078407BA0720F0621B730B840B0C
:100B1000BA0BEE1F88F7E09508950E94290688F029
:100B20009F5798F0B92F9927B751B0F0E1F0660FB1
:100B3000771F881F991F1AF0BA95C9F714C0B130F2
:100B400091F00E944306B1E008950C944306672F8C
:100B5000782F8827B85F39F0B93FCCF38695779521
:100B60006795B395D9F73EF490958095709561950A
:100B70007F4F8F4F9F4F0895E89409C097FB3EF435
:100B800090958095709561957F4F8F4F9F4F9923DA
:100B9000A9F0F92F96E9BB279395F6958795779558
:100BA0006795B795F111F8CFFAF4BB0F11F460FF18
:100BB0001BC06F5F7F4F8F4F9F4F16C0882311F070
:100BC00096E911C0772321F09EE8872F762F05C084
:100BD000662371F096E8862F70E060E02AF09A951F
:100BE000660F771F881FDAF7880F9695879597F914
:100BF000089597F99F6780E870E060E008959FEF9F
:100C000080EC089500240A941616170618060906A3
:100C1000089500240A941216130614060506089572
:100C2000092E0394000C11F4882352F0BB0F40F4FA
:100C3000BF2B11F460FF04C06F5F7F4F8F4F9F4F3A
:100C4000089557FD9058440F551F59F05F3F71F0BC
:100C50004795880F97FB991F61F09F3F79F0879523
:100C60000895121613061406551FF2CF4695F1DFAC
:100C700008C0161617061806991FF1CF869571053C
:100C8000610508940895E894BB2766277727CB0170
:100C900097F90895BB274A3031F4992322F4BDE235
:100CA000909581959F4F0C945606BB27FB015527C5
:100CB000AA27880F991FAA1FA41710F0A41B8395B9
:100CC0005051B9F7A05DAA3308F0A95DA193009730
:100CD00079F7B111B1931192CB010C946F06DC013D
:100CE000FC01672F71917723E1F7329704C07C9163
:100CF0006D9370836291AE17BF07C8F30895F8949F
:020D0000FFCF23
:100D02006400640020202020202000004C3A005281
:100D12003A004E2F41200A0020202020004E2F4171
:0E0D2200004C6566743A0052696768743A00C6
:00000001FF
